:020000040000FA
:1000000080312328003008007E1480310B1F212806
:100010002100111E15282000111E152821004D0851
:100020008A004C080A00803121282100911E2128D5
:100030002000911E212821004B088A004A080A004E
:1000400080317E100900803125288630840094306C
:1000500085006C3086000030870003309431E9243D
:1000600080312A30840095308500CF308600003002
:1000700087000A309431E9248031023084009730BF
:10008000850050308600013087001B309431E92410
:100090008031FC01533084000030850019309431E8
:1000A000E3248031A0308400003085002430943176
:1000B000E3248031203084000130850030309431D9
:1000C000E3248031A0308400013085002030943159
:1000D000E3247E10200080316D2896310D2680317A
:1000E0008B170B17DA30F1001730F2009431B92476
:1000F00080317230F1001730F2009431B324803136
:100100002000E101D901DA0159088D3175258031CE
:10011000200059088A31B822803100302100BB000C
:100120000030BA000030B9000030B80020005D0394
:10013000031D9E28DD018B31F723803194317A2411
:100140008031003A0319A2299731B5278031210067
:10015000D90059082000E30063088931A2218031C9
:10016000003A0319A22920006008031DC228630871
:100170002100D90059082000E200630888316C2072
:100180008031A2296103031D952954306306031DA4
:100190002C2907308D317525803115302100DA008A
:1001A0004B30D900BE30890BD328D90BD328DA0BBA
:1001B000D328000015302100DA004B30D900BE30C2
:1001C000890BE028D90BE028DA0BE0280000153075
:1001D0002100DA004B30D900BE30890BED28D90B55
:1001E000ED28DA0BED28000015302100DA004B3045
:1001F000D900BE30890BFA28D90BFA28DA0BFA2875
:10020000000015302100DA004B30D900BE30890BD8
:100210000729D90B0729DA0B07290000153021001F
:10022000DA004B30D900BE30890B1429D90B1429C0
:10023000DA0B142900002000E101E0010030210068
:10024000BB000030BA000030B9000030B800200018
:1002500059088D3175258031463020006306031D15
:10026000A22900308D317525803115302100DA004A
:100270004B30D900BE30890B3B29D90B3B29DA0B17
:100280003B29000015302100DA004B30D900BE3088
:10029000890B4829D90B4829DA0B48290000153069
:1002A0002100DA004B30D900BE30890B5529D90B1B
:1002B0005529DA0B5529000015302100DA004B30A2
:1002C000D900BE30890B6229D90B6229DA0B622969
:1002D000000015302100DA004B30D900BE30890B08
:1002E0006F29D90B6F29DA0B6F2900001530210017
:1002F000DA004B30D900BE30890B7C29D90B7C2920
:10030000DA0B7C2900002000E101E001003021002F
:10031000BB000030BA000030B9000030B800200047
:1003200059088D3175258031A22954306306031D8B
:100330009D2962088531F72580314630200063060B
:100340000319E00197311D278031003A03199628DF
:1003500020006108031D7C2A6003031DC9290130A8
:100360002100B8070030B93D0030BA3D0030BB3D38
:100370001E30380639043A043B04031DC9290030F5
:10038000BB000030BA000030B9000030B8002000D7
:10039000E00100309631E7268031013A031D782ACA
:1003A00001309631E7268031013A031D782A023068
:1003B0009631E7268031003A031D782A013021006A
:1003C000C2070030C33D0830420607300319430618
:1003D000031D9628C201C30100302000C8009830D8
:1003E000C9009531D825803115302100DA004B3015
:1003F000D900BE30890BFA29D90BFA29DA0BFA2970
:10040000000015302100DA004B30D900BE30890BD6
:10041000072AD90B072ADA0B072A0000153021001A
:10042000DA004B30D900BE30890B142AD90B142ABC
:10043000DA0B142A000015302100DA004B30D90005
:10044000BE30890B212AD90B212ADA0B212A000080
:1004500015302100DA004B30D900BE30890B2E2A2E
:10046000D90B2E2ADA0B2E2A000015302100DA00D3
:100470004B30D900BE30890B3B2AD90B3B2ADA0B13
:100480003B2A000015302100DA004B30D900BE3085
:10049000890B482AD90B482ADA0B482A0000153064
:1004A0002100DA004B30D900BE30890B552AD90B18
:1004B000552ADA0B552A000009302000C800983070
:1004C000C9009531D82580312000E101E10AE00121
:1004D000E00A00302100BB000030BA000030B90053
:1004E0000030B80000308D31752580312000D32ACE
:1004F0002100C201C30196286003031D9628013024
:100500002100B8070030B93D0030BA3D0030BB3D96
:100510003B08031D942A3A08031D942A3030380200
:100520007530393B031CB42A00308D31752580317C
:1005300021003B08031DA32A3A08031DA32A7D308E
:100540003902031C96280030BB000030BA0000308E
:10055000B9000030B800200059088D317525803170
:100560002000E001E10196280130D900590820005F
:10057000DE075F08031DC92A00308D3175258031E3
:10058000C83020005E06031D9628DE01DF01DF0A69
:10059000962807308D3175258031C83020005E06E1
:1005A000031D9628DE01DF0196282000AD00A8017A
:1005B000A901AA01AB01A701A401A5012D080319F6
:1005C0001B2B7B0803191B2B2D08083E86000130CE
:1005D00087008119FB2A7B08083E860001308700CE
:1005E000811DFB2A2D08083E8600013087008115F9
:1005F000A401A40A302B7B08083E86000130870046
:100600008119122B2D08083E860001308700811DBC
:10061000122B7B08083E8600013087008115A5015A
:10062000A50A302B2D08083E86000130870081196D
:10063000302B7B08282B2D08031D212B7B08031D45
:10064000192B2D080319302B7B08031D302B2D0887
:10065000083E8600013087008119302B00300800E9
:100660007B0895315C258231003A03193A2B200032
:10067000A701A70A2E0012082000A0002008A10050
:100680002E0013082000A0002008A2002F0013084D
:100690002000A0002008A3009531A625823120006B
:1006A0002D080319662B2D08043E860001308700B3
:1006B0000108FF3EA0002008AC00A60140302E003B
:1006C00098002F00980122001D14792B7B08043E0E
:1006D0008600013087000108FF3EA0002008AC0022
:1006E000A601A60A2E00980140302F009800220093
:1006F0001D10F20120002D0884319F248231F20167
:10070000F20A7B0884319F2482312000691069112C
:10071000E9116E089431A924823194317D2482310B
:100720002000DB01DC012608031D9C2B111FE910B2
:10073000111F982B1113A22B121B9F2BE910121FB4
:100740009F2B12132130A00020082E009806213084
:100750002000A00020082F009806C0302000A00034
:1007600020082E009406C0302000A00020082F0092
:10077000940620002C18022C2E001A082000D30703
:100780002E001B082000D43D2F001A082000D5079A
:100790002F001B082000D63D2708031DE72B2E0045
:1007A0001A0820002A02F1002E001B0820002B3B13
:1007B000F2009631A026823171082000DB07720812
:1007C000DC3D2E001B082000AB002E00FE2B2F006E
:1007D0001A0820002A02F1002F001B0820002B3BE2
:1007E000F2009631A026823171082000DB077208E2
:1007F000DC3D2F001B082000AB002F001A08200052
:10080000AA00362C2E001A082000D3022E001B0846
:100810002000D43B2F001A082000D5022F001B080F
:100820002000D63B2708031D1C2C2E001A08200090
:100830002802F1002E00222C2F001A082000280286
:10084000F1002F001B082000293BF2009631A02662
:10085000823171082000DB077208DC3D2E001B0886
:100860002000A9002E001A082000A8002C08031957
:1008700069140130AC02E91C3F2C69156914E914B4
:10088000691C932B943180248231200021082E0092
:100890009200200022082E009300200023082F0041
:1008A00093002000691D562CFB300800E91D5A2CCE
:1008B000FA30080024080319632C2D08083E86002E
:1008C000013087008111250803196C2C7B08083E34
:1008D00086000130870081112D089531C7258231AE
:1008E000003A0319802C20002D08953120258231F3
:1008F000003A031D802C20002D088F316E27823195
:100900007B089531C7258231003A0319922C7B0868
:10091000953120258231003A031D922C7B088F31BE
:100920006E2782312E0096012F0096012E0097012E
:100930002F0097012E0011102F0011102E2BF900FF
:100940007908031908007208031DA92CF601F701A4
:10095000AD2C8030F6000030F7007608F300730805
:10096000F800790A8600013087000108F300780852
:10097000113EF400F5010730F53D74088600750856
:100980008700730881007908053E860001308700E2
:100990000108F3007808193EF400F5010730F53D31
:1009A0007408860075088700730881007808133E74
:1009B000F300F4010730F43D7308860074088700E3
:1009C00050308100FE30F3007808183E8600870121
:1009D0000730873D730881057908953120258431DA
:1009E000003A0319072D7908023E8600013087007E
:1009F0000108F3007808163EF400F5010730F53DD4
:100A00007408860075088700730881001A2D78081D
:100A1000163EF300F4010730F43D730886007408B5
:100A20008700203081007908953117258431003AFC
:100A300003192D2D7908033E860001308700010837
:100A4000F3007808173EF400F5010730F53D74080F
:100A50008600750887007308382D7808173EF30064
:100A6000F4010730F43D73088600740887002030D5
:100A700081007908043E8600013087000108F300F8
:100A8000F4010930F335F40D890B422D7235533ED4
:100A9000860087017308C03F7408C13F080020002A
:100AA000BF00370886008701403FB900413FBA00C8
:100AB000390884003A0885001200253A031DD42D18
:100AC0003708860087010130810741310318810A08
:100AD000D701D8012100C001C101FF30BE00FF30A5
:100AE000BF002000370886008701403FB900413F22
:100AF000BA00390884003A0885001200633A031DE1
:100B0000A22D370886008701013081074131031883
:100B1000810A3808860087010108840085010230B7
:100B200081070008B9003908BE003E08B90039083D
:100B3000B1003F088731D72720003208B8003108BC
:100B4000B7000800370886008701403FB900413FE1
:100B5000BA00390884003A0885001200253A031DBE
:100B6000C92D3708860087010130810741310318FC
:100B7000810A2530F4000030F5003F08B90039083B
:100B8000F6008931D42101302000B7000030B800D0
:100B900008003708860087010130810741310318BA
:100BA000810AB701B8010800370886008701403F75
:100BB000B900413FBA00390884003A0885000008AE
:100BC000BB00BC013B08F4003C08F5003F08BD0039
:100BD0003D08F6008931D421853120003708860090
:100BE00087010130810741310318810AC32DF600C6
:100BF00000302100BB000030BA000030B9000030E6
:100C0000B800782E00308D317525853100308A315D
:100C1000B8222000E001D901DA01080001308D314D
:100C20007525853101308A31B8222000E00101307C
:100C3000D9000030DA00080002308D317525853189
:100C400002308A31B8222000E0010230D9000030A1
:100C5000DA00080003308D317525853103308A3183
:100C6000B8222000E0010330D9000030DA0008008B
:100C700004308D317525853104308A31B822200049
:100C8000E0010430D9000030DA00080005308D3171
:100C90007525853105308A31B8222000E001053004
:100CA000D9000030DA00080006308D317525853115
:100CB00006308A31B8222000E0010630D900003029
:100CC000DA00080007308D317525853107308A310B
:100CD000B8222000E0010730D9000030DA00080017
:100CE0002000E001DD01DD0A08002000E00108002D
:100CF0007608F400F5017508003A0319802E752E68
:100D00007408303A0319022E013A03190E2E033AE1
:100D100003191C2E013A03192A2E073A0319382EFB
:100D2000013A0319462E033A0319542E013A0319C6
:100D3000622E623A0319702E752E080020002408D6
:100D4000093E8600013087000108803AA50024088A
:100D50000E3E8600013087000103FF3A803AA5026B
:100D60000318DD2E24080A3E86000130870001307A
:100D7000810741310318810A24080A3E86000130A8
:100D80008700403FA500413FA600003026024130C9
:100D900003192502031C1F2F24080A3E8600013078
:100DA00087000030C03FC13F240886000130870023
:100DB00001088A31092286311F2F2408093E860046
:100DC000013087000108A500A601A51BA603240881
:100DD0000E3E8600013087002608803A803C031DC5
:100DE000F32E250801020318162F02302000A5005B
:100DF0002408023E8600013087002508810024086F
:100E00000A3E8600013087000030C03FC13F240801
:100E10008600013087000108A5002508F4002100A4
:100E200056088A0055080A0087311F2F2000240821
:100E30000A3E8600013087000030C03FC13F2000DD
:100E400024080C3E860001308700013081074131C3
:100E50000318810A24080C3E860001308700160022
:100E6000403AA5001600A504031D080024080C3E06
:100E70008600013087000030C03FC13F24088E311A
:100E8000DF2608002000C2004208BF00C001BF35B5
:100E9000C00D3C303F0784009830403D850000087D
:100EA000C1004108C4004208BF00C001BF35C00DE9
:100EB0003D303F0784009830403D85000008C10068
:100EC0004108C5004508BF003F08BB0044088C31FD
:100ED000512487312000C0004008C300B12F4408CE
:100EE0009531C7258731003A03198F2F20006A08F2
:100EF000031D7E2F44088831932087312000440849
:100F00009431FF2487312000440886000130870097
:100F10000108BF003F08F100883100208731200020
:100F200045089531C7258731003A0319D42F200091
:100F30006A08031D9F2F45088831932087312000C0
:100F400045089431FF248731200045088600013090
:100F500087000108BF003F08F10088310020873179
:100F6000D42F4308BF00C001BF1BC0034008003A94
:100F70000319BE2FFF3A0319C32FD42F3F08003A9D
:100F800003196F2FD42F3F08FB3A0319D42F073AC8
:100F90000319D42F013A0319D42F033A0319D42F7C
:100FA000013A0319D42FD42F200043080800200051
:100FB000B60057085804031DE22F5808B50057081B
:100FC000B400E82F5708FF3EB400FF30583DB5008D
:100FD0003108B30033082300A000A101A030200095
:100FE000B3003308A8003508AA003408A900360861
:100FF0008B31522320002908B2002808B1000800D4
:101000000800083021004E0203181D282000670840
:10101000B03E86008701010823009A000130F000ED
:1010200070082000E707083067020318E701013065
:10103000F00070082100CE070800111208002000FF
:10104000A700A501A60125082707A1002108860001
:10105000013087000108A2002208A4002408031917
:1010600008002408A100A2012108F4002208F500CC
:101070002008A3002308F6008931D42188310130EB
:101080002000A5070030A63D2328F3007308023E88
:1010900086000130870002300106031D0800730836
:1010A0000A3E860001308700013081074131031874
:1010B000810A73080A3E8600013087001600010489
:1010C000031D080073080A3E860001308700FF30C8
:1010D000C03FFF30C13F08002000D2008228E0015D
:1010E00008004030C8009830C9005208D000D10133
:1010F0005008CA005108CB009531D8252000E001E6
:10110000E00A08005208D000D1015108003A031942
:101110008A2871285008463A03196F28123A031991
:101120006F2871280800F70077088831E620883199
:10113000F5007508F6008B1FAD288B137635533EEE
:10114000860087017708063E840001308500403F15
:10115000803F413F813F8B1708007635533E860024
:1011600087017708063E840001308500403F803FBC
:10117000413F813F0800F9007208F8007108F7004C
:101180007908F5007508FA000130F3020030F43BED
:10119000730A0319740A0319080077088400780891
:1011A00085000008F5007508F6000130F7070030EB
:1011B000F83D7608F5007A0886000130870075084A
:1011C00081000130F5007508FA07C428F300F40126
:1011D0007408F100F201F135F20D3C307107840022
:1011E0009830723D850000087306031DF928003011
:1011F00008007408F100F201F135F20D3D3071077D
:1012000084009830723D850000087306031D0A298A
:10121000013008000130F1007108F4070230740257
:101220000318F728E828F900790A860001308700BA
:1012300001089631B726893175082000A00076088C
:10124000A100A201A3017908053E860001308700B4
:101250002008C03F2108C13F2208C23F2308C33FE6
:101260007908053E86000130870004308135413120
:10127000810D4131810D4131810D7D31890B36293F
:1012800008002000C5004108C7004008C600210032
:10129000BC01BD01200046088400470885001200FB
:1012A000031967294630C3004308B7004208C40049
:1012B0004408B800450885314F258931200037089A
:1012C0002100BC07200038082100BD3D4A2921002B
:1012D0003D082000C10021003C082000C00008009B
:1012E0007C08A03E86008701810123001D1D832903
:1012F0007C08A03E860087018114210049088A00ED
:1013000048080A00893123009D1C91297C08A03ED1
:10131000860087010115210047088A0046080A0057
:1013200089317C08A03E86008701010803199F29A6
:10133000210045088A0044080A00893108009631D6
:1013400089260800F300A8290130080000300800B1
:101350007308F100F2017208003A0319B029A629B6
:101360007108303A0319A429013A0319A429033A50
:101370000319A429013A0319A429073A0319A42936
:10138000013A0319A429033A0319A429013A0319BC
:10139000A429713A0319A429123A0319A429013A7C
:1013A0000319A429A62908007608031D7608031D41
:1013B000DD2974089431AE2408007608033E8600C7
:1013C0008701160001040319002A7608033E8600EF
:1013D0008701403FF700413FF800760A8600870109
:1013E000403FF900413FFA007A08803AFB00780854
:1013F000803A7B02031DFE29770879020318080052
:10140000760A860087010130810741310318810A7D
:101410000800F9007908F7000330F735FF3E031D97
:101420000D2A7735203EF8007808FA007A08023E47
:1014300086000130870081017A08053E8600013070
:1014400087000030C03F0030C13FC23FC33F7A0831
:101450000A3E8600013087000030C03FC13F7A0855
:101460000C3E8600013087000030C03FC13F7A0A41
:1014700086000130870001089531E9250800F90050
:1014800079088831E6208A31F5007508F800790876
:101490009531C7258A31003A0319662A7908063E34
:1014A0008600013087007835533E84008501403F37
:1014B0000002F1000131413F003BF2009631A026CD
:1014C0008A317208F7007108F600682AF601F70100
:1014D00000307702653003197602031C732A7908FD
:1014E0009431EF24080079089431F7240800210092
:1014F00091127030F1000930F2009431D1248A3118
:10150000210011120130F1000830F2009431D7248B
:101510008A310A3023009F0090309D0024309E00C5
:1015200040309B0003309C007530F1001430F20015
:101530009431C5248A318930F1001430F20094319D
:10154000CB248A317730F1001430F2009431BF247B
:101550002000E401E801E7010830F30073082100EE
:10156000CE00FC012000E601E501210091160800F3
:10157000F300E22A22000E168E150E170800220034
:101580000E168E150E13080022000E168E110E1761
:10159000080022000E168E110E13080022000E12F3
:1015A0008E150E17080022000E128E150E1308005D
:1015B00022000E128E110E17080022000E128E113C
:1015C0000E1308007308F100F2017208003A0319C3
:1015D000EA2A042B7108003A0319BA2A013A0319BE
:1015E000BF2A033A0319C42A013A0319C92A073A40
:1015F0000319CE2A013A0319D32A033A0319D82A28
:10160000013A0319DD2A042B0800FB007B08023E87
:1016100086000130870001080319412B7B08033E37
:10162000860001308700403FF900413FFA00FA365A
:10163000F90CFA36F90C7B08033E8600013087006E
:101640007908810241317A08813B7F317B0A86002B
:101650000130870001089631B7267508F900760831
:10166000FA00FA36F90CFA36F90C7B08033E8600CC
:10167000013087007908810741317A08813D7F3147
:1016800008007B0A86000130870001089631B726E2
:101690007B08033E8600013087007508C03F76084E
:1016A000C13F08002000B0002100401C602B20003A
:1016B0003008AB002B08A000280888311F208B3190
:1016C0002000AA1B682B2A08AF002908AE006A2B4D
:1016D000AE01AF01AC01AD012D08803AAB002F087F
:1016E000803A2B02031D762B2E082C0203188A2B1E
:1016F0002030F4000030F50020003008AB002B084B
:10170000F6008931D4218B3101302000AC07003044
:10171000AD3D6C2B21004018962B20003008AB000B
:101720002B08A000280888311F208B3120002808B2
:101730009631CF2620002E087107A8002F08723D91
:10174000A90008002000AB002B08A9000330A93530
:10175000FF3E031DA72B2935203EAA002A08AC0016
:101760002C0A8600013087000108953178258B31DD
:10177000003A0319080020002C0A86000130870077
:101780000108963147268B31003A031908002000E2
:101790002C08953140258B3120002C088E3158269D
:1017A0008B3120002C08023E860001308700033078
:1017B0000102031CE32B2C0886000130870001087E
:1017C0008A3109228B3120002C08A9002908A400A5
:1017D0002C08023E8600013087000135CF3E86008E
:1017E0008701413F8A00403F0A008B310800302CBE
:1017F0001430C8009830C9009531D8250800193038
:10180000C8009830C9009531D82508001E30C8009E
:101810009830C9009531D82508002330C800983089
:10182000C9009531D82508002830C8009830C90073
:101830009531D82508002D30C8009830C900953161
:10184000D82508003230C8009830C9009531D82515
:1018500008003730C8009830C9009531D8250800F5
:1018600020005A08003A0319362C502C5908003A27
:101870000319F82B013A0319FF2B033A0319062C1D
:10188000013A03190D2C073A0319142C013A0319D4
:101890001B2C033A0319222C013A0319292C502C32
:1018A00008002000BE000530BC003C08BD003E081A
:1018B000031D672C3B08031D672CFF300800013017
:1018C0002000BD023D08031D672CFC3008003B08CA
:1018D000BC003C08FB003E088231D5228C31003A26
:1018E000031D5F2C20003E0803197A2C3E088A3124
:1018F0003F228C3120003B080319822C3B088A319F
:101900003F228C3120003E0895315C258C31003A15
:101910000319922C20003E08953120258C31003A85
:10192000031DA22C20003B0895315C258C31003A28
:101930000319AB2C20003B08953120258C31003A4F
:101940000319AB2C20003B08BC003C08AE003E084D
:101950008D31E225080000300800200024080A3EEE
:10196000860001308700403FA500413FA6000030BF
:1019700026020930031925020318C32C24088931D3
:1019800013218C31C72C24088E31DF268C312000A6
:1019900024080A3E8600013087000130810741316A
:1019A0000318810A24080A3E860001308700403F60
:1019B000A500413FA6000030260210300319250281
:1019C000031C08002408053E860001308700403FC4
:1019D000A500413FA600423FA700433FA8000430B6
:1019E000A836A70CA60CA50C890BF02C2408033EE6
:1019F0008600013087002508C03F2608C13F240823
:101A0000023E8600013087008101810A24080A3ED7
:101A10008600013087000030C03FC13F0800200031
:101A200024080A3E860001308700403FA500413F60
:101A3000A60007302602D03003192502031C372DDB
:101A4000240886000130870001088A3109228D317F
:101A5000200024088600013087000108A500250821
:101A6000F4006D088A006C080A008D310800240813
:101A7000093E8600013087000108803AA50024084D
:101A80000E3E86000130870024080E3E840001309F
:101A9000850000360102803AA502031808002408D8
:101AA000023E8600013087008101810A24080A3E37
:101AB0008600013087000030C03FC13F24080C3E43
:101AC000860001308700FF30C03FFB30C13F240853
:101AD0008600013087000108A5002508F4006D0884
:101AE0008A006C080A008D310800F300BF2D943184
:101AF0009D248D31943195248D3194318D240800AD
:101B000094319D248D31943195248D3194319124DB
:101B1000080094319D248D31943199248D31943174
:101B20008D24080094319D248D31943199248D3178
:101B30009431912408009431A1248D31943195245D
:101B40008D3194318D2408009431A1248D3194314C
:101B500095248D319431912408009431A1248D3144
:101B6000943199248D3194318D2408009431A1242D
:101B70008D31943199248D3194319124080073086A
:101B8000F100F2017208003A0319C72DE12D710826
:101B9000003A0319772D013A0319802D033A0319EE
:101BA000892D013A0319922D073A03199B2D013A09
:101BB0000319A42D033A0319AD2D013A0319B62DCB
:101BC000E12D08002000B1005C08B0005B08AF0008
:101BD000B036AF0CB036AF0C5B082F07B2005C0814
:101BE000303DB3006E08AF002F08B4005408B700B2
:101BF0005308B6005608B9005508B800BA013A08AB
:101C00000F3E840098300318013E85000008AF00A5
:101C10002F08EE07AE306E020318122EAE30AF0062
:101C20002F08EE070530AF002F08B5002E08AF00D3
:101C30002F08FB0031088231D5228D31003A03197B
:101C4000292E01302000B5023508031D162EFC3068
:101C5000080020005C083302031D302E5B083202AE
:101C60000318422E5C08B3005B08B2006E08AF0098
:101C70002F08B4005408B7005308B6005608B9003E
:101C80005508B8000130AF002F08BA0705303A02F6
:101C9000031CFF2D3408AF002F08EE003708D400D6
:101CA0003608D3003908D6003808D50000300800BF
:101CB0002000A0002008053E860001308700403F3C
:101CC000F100413FF200423FF300433FF400043093
:101CD000F436F30CF20CF10C890B682E2008033E4D
:101CE000860001308700403FF500413FF60075084F
:101CF000F7007608F800F901FA017108F702720896
:101D0000F83B7308F93B7408FA3B7A08A400790899
:101D1000A3007808A2007708A1002108F10022089A
:101D2000F2002308F3002408F40020080F3E860088
:101D300001308700010AA02EF437F30CF20CF10CED
:101D4000890B9C2E7408A4007308A3007208A200DB
:101D50007108A100A41BC12E2408031DB92E23085D
:101D6000031DB92E2208031DB92E80302102031C49
:101D7000C12E0030A4000030A3000030A2007F304C
:101D8000A100A41FD52E80302102FF30223BFF305E
:101D9000233BFF30243B0318D52EFF30A400FF3037
:101DA000A300FF30A2008030A1002108F10020082C
:101DB000093E860001308700710881000800F700A5
:101DC0008B1F292F8B137708053E86000130870073
:101DD000403FF100413FF200423FF300433FF40037
:101DE0000430F436F30CF20CF10C890BF12E770869
:101DF000053E86000130870071088102413172087A
:101E0000813B41317308813B41317408813B7D3115
:101E10007708033E860001308700403FF100413FD4
:101E2000F2007108F3007208F400F501F60177087A
:101E3000053E860001308700730881074131740830
:101E4000813D41317508813D41317608813D8B17D7
:101E500008007708053E860001308700403FF1000A
:101E6000413FF200423FF300433FF4000430F436B8
:101E7000F30CF20CF10C890B372F7708053E860026
:101E8000013087007108810241317208813B413184
:101E90007308813B41317408813B7D317708033EF3
:101EA000860001308700403FF100413FF200710899
:101EB000F3007208F400F501F6017708053E86008C
:101EC000013087007308810741317408813D413139
:101ED0007508813D41317608813D0800FA007A0895
:101EE0008831E6208F31F5007508F9007A089531C0
:101EF00017258F31003A031DAF2F7935533E8600E9
:101F00008701403FF500413FF6007A08043E860015
:101F1000013087000108F700F8010930F735F80DA6
:101F2000890B8E2F76087802031D982F750877028B
:101F30000318AB2F0130F5007A08053E860001300A
:101F40008700750881070F300102031C08007A081A
:101F50009531872508007A089531872508007A0889
:101F6000043E8600013087000108F500F601F535D2
:101F7000F60D7A08063E8600013087007935533E1B
:101F800084008501403F0002F1000131413F003BE8
:101F9000F2009631A0268F3176087202031DD22FEF
:101FA000750871020318E12F2030F5007A08023E0F
:101FB000860001308700750881007A0895314E252A
:101FC00008000230F5007A08033E860001308700E1
:101FD000750881077A08033E8600013087002030AB
:101FE0000102031C08002030F5007A08023E86003A
:101FF00001308700750881007A0895314E25080068
:10200000003402340034003400340034003400342E
:1020100000340034003400340034003464340134BB
:10202000013400340034003400340034003400340F
:10203000003400340034003400340034643401349B
:1020400002340134003400340034003400340034ED
:10205000003400340034003400340034643401347B
:1028EA0008000800963189260800200065080800BB
:1028FA0020001C15080020001C11080096317326C0
:10290A00080076341434AE3423001D121D16080054
:10291A0022008C160C12080022000C168C120800D9
:10292A0022008C140C10080022000C148C100800D1
:10293A0022000E140C11080022000C150E100800BB
:10294A001630210097000800F100710820009B0052
:10295A000800F300730897319227080072082000D4
:10296A00ED007108EC00080072082100D600710819
:10297A00D500080072082100C5007108C4000800CB
:10298A0072082100C9007108C800080072082100F5
:10299A00C7007108C600080072082100CB00710840
:1029AA00CA00080072082100CD007108CC00080096
:1029BA00F03021009900220096010800640080018D
:1029CA000131890BE42C0034FE0012001E00FE0BBC
:1029DA00EA2C0034F1007108083E860001308700B5
:1029EA0081140800F1007108083E86000130870052
:1029FA0081100800F1007108083E86000130870046
:102A0A0001140800F1007108083E860001308700B1
:102A1A0001100800FF3020009B009A019110043039
:102A2A009C000800F1007108083E8600013087000A
:102A3A00010E01390800F1007108083E86000130D4
:102A4A008700010C890C01390800AD340C349E341E
:102A5A0006340F340D347634143400340834953186
:102A6A006A25953197313927953196311F26953147
:102A7A009531A62508002000A0008B1F4A2D8B1334
:102A8A0020088B3105238B17080020088B3105237A
:102A9A000800F1007108083E860001308700011520
:102AAA007108083E86000130870001120800F10013
:102ABA007108031D622D003008007108083E860067
:102ACA0001308700010C01390800FA017A089631B1
:102ADA00322695310130F9007908FA0703307A0273
:102AEA00031808006B2DF6000930F5007508F1008F
:102AFA0076089531B625583E8600013087000108D0
:102B0A0001390800F1007108083E8600013087008B
:102B1A0001167108033E8600013087008101810A8F
:102B2A0008002000AE012E088B31A2239531013016
:102B3A002000AD002D08AE0703302E02031808004E
:102B4A00982DFC3020009C052E0091012F00910148
:102B5A0090302E0092004030940040302F009400B4
:102B6A000800F400F301741CBE2D7108F20072080B
:102B7A00F3070310F10D0310F40C7408031DB82DAC
:102B8A0073080800F20072080319D62D7208083E6D
:102B9A00860001308700010CF100F10C710C01393B
:102BAA000800003008004A302000CC004C08CF0052
:102BBA004908C1004808C0004F30CC004C08C20088
:102BCA000030893141210800F600033076020318EB
:102BDA0008000930F5007508F10076089531B62528
:102BEA00583E86000130870001110800F6000330C4
:102BFA007602031808000930F5007508F100760816
:102C0A009531B625583E86000130870081150800A7
:102C1A009731552796319431DD2496319431A52484
:102C2A00963195310F2596318A3177229631953131
:102C3A00342508005030F2007208F3006230F200C6
:102C4A0073087202031C0800730895310725963130
:102C5A000930F2007208F307232EF800780895313C
:102C6A00FB25963178089531E92596310930F70028
:102C7A007708F10078089531B6259631503E95319E
:102C8A0007250800F6000330760203185B2E093088
:102C9A00F5007508F10076089531B625583E86008C
:102CAA0001308700010C890C013908000030080046
:102CBA002000C7014708873142279631003A031995
:102CCA00682E0030080001302000C6004608C707F9
:102CDA0002304702031C5F2E01300800F501750817
:102CEA00F4000330F435FF3E031D772E7435203E81
:102CFA008831452096310130F4007408F507033015
:102D0A00750203180800742E23001908F0007C08C5
:102D1A00A83E86008701700881000130F000700823
:102D2A00FC0708307C020318FC010130F00070082F
:102D3A002000E50708007208803AF3008030730229
:102D4A00031DA92E01307102031808007109F3004E
:102D5A007209F400F30A0319F40A7308F1007408FB
:102D6A00F2000800F800033078020318CC2E09306C
:102D7A00F7007708F10078089531B625563E8600A7
:102D8A0001308700403FF500413FF6000800F50199
:102D9A00F6010800F5007508F3007308F4007508D9
:102DAA0086000130870001080319E02E0130F30084
:102DBA007308F507D42E74087502F100F201F11BAD
:102DCA00F2030800F200033072020318002F72089F
:102DDA00F1000330F135FF3E031DEF2E7135223E1F
:102DEA0086000130870002300106031DFE2E0130E5
:102DFA00080000300800003008000034693430341C
:102E0A0010342034003400340034003401343134B6
:102E1A0030341034203400340034003400340234A6
:102E2A006134303410342034003400340034003437
:102E3A002000EB01EB0A96315D269731003A031D1B
:102E4A00282F0030080095319625973180310220CD
:102E5A0097312000C8004808EB0096311F269731A9
:102E6A0094318324013008000030F1009030F200E0
:102E7A003030F3000030F40020308831BB20973125
:102E8A002000A00120088A31092297310130FB0075
:102E9A007B082000A0070330200203180800472FF0
:102EAA00373022008C0070308D00FD308E000830E3
:102EBA0021008C0060308D0002308E00FF3023002C
:102ECA008E0050308D0037308C0024008D018C012B
:102EDA002100951722009D0108002100C201C301AB
:102EEA0020006108031D080000309631E72697315B
:102EFA00003A031D080001309631E7269731003A5F
:102F0A00031D080002309631E7269731003A031D67
:102F1A0008002000DD01DD0A0800F20021004E0849
:102F2A000319932F111A9D2F720823009A00B22FAA
:102F3A0011127208F10020006808B03E860087016D
:102F4A00710881000130F1007108E8070830680251
:102F5A000318E80101302100CE02210011160800F1
:102F6A00200065080319B52F6608A03E8600870170
:102F7A000108F1007108E4006608A83E860087018E
:102F8A000108F1007108F2000130F1007108E6074A
:102F9A00083066020318E601210091120130200070
:102FAA00E50221009116720808002100C201C3013E
:102FBA0020006108031D08007408031DE82F013072
:102FCA00D9060030DA067403031DEF2F0230D90642
:102FDA000030DA0602307406031DF72F0430D906D2
:102FEA000030DA0659088D317525973120005908C5
:102FFA008A31B822080050344934433453344D34AA
:10300A004134523454340034523455344E340D342D
:10301A000A34003400340D341C341E34173450344E
:10302A00493443343034003450344934433431342D
:10303A00003450344934433432340034503449343F
:10304A004334333400345034493443343434003450
:10305A0050344934433435340034503449344334D9
:10306A003634003450344934433437340034593414
:0C307A00503400346234253463340034D8
:020000040001F9
:04000E00E4FDFFF717
:00000001FF
